{
  "_format": "hh-sol-artifact-1",
  "contractName": "Wallet",
  "sourceName": "contracts/Wallet.sol",
  "abi": [
    {
      "inputs": [],
      "stateMutability": "nonpayable",
      "type": "constructor"
    },
    {
      "inputs": [],
      "name": "ShowAlluser",
      "outputs": [
        {
          "internalType": "address[]",
          "name": "",
          "type": "address[]"
        }
      ],
      "stateMutability": "view",
      "type": "function"
    },
    {
      "inputs": [
        {
          "internalType": "address",
          "name": "user",
          "type": "address"
        }
      ],
      "name": "balanceOf",
      "outputs": [
        {
          "internalType": "uint256",
          "name": "",
          "type": "uint256"
        }
      ],
      "stateMutability": "view",
      "type": "function"
    },
    {
      "inputs": [
        {
          "internalType": "address",
          "name": "",
          "type": "address"
        }
      ],
      "name": "balances",
      "outputs": [
        {
          "internalType": "uint256",
          "name": "",
          "type": "uint256"
        }
      ],
      "stateMutability": "view",
      "type": "function"
    },
    {
      "inputs": [],
      "name": "deposit",
      "outputs": [],
      "stateMutability": "payable",
      "type": "function"
    },
    {
      "inputs": [
        {
          "internalType": "uint256",
          "name": "amount",
          "type": "uint256"
        }
      ],
      "name": "withdraw",
      "outputs": [],
      "stateMutability": "nonpayable",
      "type": "function"
    }
  ],
  "bytecode": "0x6080604052348015600f57600080fd5b50336000806101000a81548173ffffffffffffffffffffffffffffffffffffffff021916908373ffffffffffffffffffffffffffffffffffffffff1602179055506109458061005f6000396000f3fe60806040526004361061004a5760003560e01c806327e235e31461004f5780632d4b3acc1461008c5780632e1a7d4d146100b757806370a08231146100e0578063d0e30db01461011d575b600080fd5b34801561005b57600080fd5b5061007660048036038101906100719190610589565b610127565b60405161008391906105cf565b60405180910390f35b34801561009857600080fd5b506100a161013f565b6040516100ae91906106a8565b60405180910390f35b3480156100c357600080fd5b506100de60048036038101906100d991906106f6565b6101cd565b005b3480156100ec57600080fd5b5061010760048036038101906101029190610589565b61033e565b60405161011491906105cf565b60405180910390f35b610125610416565b005b60026020528060005260406000206000915090505481565b606060018054806020026020016040519081016040528092919081815260200182805480156101c357602002820191906000526020600020905b8160009054906101000a900473ffffffffffffffffffffffffffffffffffffffff1673ffffffffffffffffffffffffffffffffffffffff1681526020019060010190808311610179575b5050505050905090565b60008054906101000a900473ffffffffffffffffffffffffffffffffffffffff1673ffffffffffffffffffffffffffffffffffffffff163373ffffffffffffffffffffffffffffffffffffffff161461025b576040517f08c379a000000000000000000000000000000000000000000000000000000000815260040161025290610780565b60405180910390fd5b4781111561029e576040517f08c379a0000000000000000000000000000000000000000000000000000000008152600401610295906107ec565b60405180910390fd5b3373ffffffffffffffffffffffffffffffffffffffff166108fc829081150290604051600060405180830381858888f193505050501580156102e4573d6000803e3d6000fd5b5080600260003373ffffffffffffffffffffffffffffffffffffffff1673ffffffffffffffffffffffffffffffffffffffff1681526020019081526020016000206000828254610334919061083b565b9250508190555050565b60008060009054906101000a900473ffffffffffffffffffffffffffffffffffffffff1673ffffffffffffffffffffffffffffffffffffffff163373ffffffffffffffffffffffffffffffffffffffff16146103cf576040517f08c379a00000000000000000000000000000000000000000000000000000000081526004016103c6906108bb565b60405180910390fd5b600260008373ffffffffffffffffffffffffffffffffffffffff1673ffffffffffffffffffffffffffffffffffffffff168152602001908152602001600020549050919050565b6000600260003373ffffffffffffffffffffffffffffffffffffffff1673ffffffffffffffffffffffffffffffffffffffff168152602001908152602001600020541480156104655750600034115b156104ce576001339080600181540180825580915050600190039060005260206000200160009091909190916101000a81548173ffffffffffffffffffffffffffffffffffffffff021916908373ffffffffffffffffffffffffffffffffffffffff1602179055505b34600260003373ffffffffffffffffffffffffffffffffffffffff1673ffffffffffffffffffffffffffffffffffffffff168152602001908152602001600020600082825461051d91906108db565b92505081905550565b600080fd5b600073ffffffffffffffffffffffffffffffffffffffff82169050919050565b60006105568261052b565b9050919050565b6105668161054b565b811461057157600080fd5b50565b6000813590506105838161055d565b92915050565b60006020828403121561059f5761059e610526565b5b60006105ad84828501610574565b91505092915050565b6000819050919050565b6105c9816105b6565b82525050565b60006020820190506105e460008301846105c0565b92915050565b600081519050919050565b600082825260208201905092915050565b6000819050602082019050919050565b61061f8161054b565b82525050565b60006106318383610616565b60208301905092915050565b6000602082019050919050565b6000610655826105ea565b61065f81856105f5565b935061066a83610606565b8060005b8381101561069b5781516106828882610625565b975061068d8361063d565b92505060018101905061066e565b5085935050505092915050565b600060208201905081810360008301526106c2818461064a565b905092915050565b6106d3816105b6565b81146106de57600080fd5b50565b6000813590506106f0816106ca565b92915050565b60006020828403121561070c5761070b610526565b5b600061071a848285016106e1565b91505092915050565b600082825260208201905092915050565b7f44656e6965642100000000000000000000000000000000000000000000000000600082015250565b600061076a600783610723565b915061077582610734565b602082019050919050565b600060208201905081810360008301526107998161075d565b9050919050565b7f596f7520617265206e6f7420656e6f756768206d6f656e790000000000000000600082015250565b60006107d6601883610723565b91506107e1826107a0565b602082019050919050565b60006020820190508181036000830152610805816107c9565b9050919050565b7f4e487b7100000000000000000000000000000000000000000000000000000000600052601160045260246000fd5b6000610846826105b6565b9150610851836105b6565b92508282039050818111156108695761086861080c565b5b92915050565b7f596f7520617265206e6f74206f776e6572000000000000000000000000000000600082015250565b60006108a5601183610723565b91506108b08261086f565b602082019050919050565b600060208201905081810360008301526108d481610898565b9050919050565b60006108e6826105b6565b91506108f1836105b6565b92508282019050808211156109095761090861080c565b5b9291505056fea26469706673582212205e213f30a9fcb1f5c23de1066be5b8ae2b2374a369b99f3a9547db17c81621e064736f6c634300081c0033",
  "linkReferences": {},
  "deployedLinkReferences": {}
}